:020000040000FA
:1000000018F09FE518F09FE518F09FE518F09FE5C0
:1000100018F09FE50000A0E1F0FF1FE518F09FE554
:1000200040000000980400009404000090040000C8
:100030008C0400000000000088040000840400001C
:10004000B0009FE5AA10A0E35520A0E32430A0E370
:10005000043080E50130A0E3003080E50C1080E53D
:100060000C2080E5083090E5013B13E2FCFFFF0A1D
:100070000330A0E3003080E50C1080E50C2080E523
:1000800074009FE50410A0E3041080E50210A0E3D3
:10009000001080E564009FE5DBF021E300D0A0E1E3
:1000A000040040E2D7F021E300D0A0E1040040E2E8
:1000B000D1F021E300D0A0E1040040E2D2F021E33E
:1000C00000D0A0E1800040E2D3F021E300D0A0E125
:1000D000040040E210F021E300D0A0E120009FE501
:1000E000010010E31CE09F051CE09F1510FF2FE1AD
:1000F000FEFFFFEAFEE7C04680C01FE000C01FE031
:1001000090040040AD030000F0000000F500000086
:10011000900400409A04004000000000000000002D
:10012000000000000000000000B5382000F044F896
:10013000192000F0C1F8012000F03EF8192000F06D
:10014000BBF8062000F038F8192000F0B5F80C20B4
:1001500000F032F8192000F0AFF800BD00B5012022
:1001600000F02AF8142000F0A7F800BD00B5011C2B
:100170000A4A0B480260081C0106090E09040948D6
:1001800001600949094801600949084801600520E2
:1001900000F092F806490748016000BD0000FF002A
:1001A0001C8002E0148002E000080000048002E0ED
:1001B000000400000C8002E000B5011C0A4A0B4854
:1001C0000260081C0106090E09040948016009497A
:1001D0000948016009490A480160052000F06CF8EF
:1001E00006490548016000BD0000FF001C8002E0D8
:1001F000148002E0000800000C8002E0000400000F
:10020000048002E010491148016028211048016073
:10021000104A11480260114A11480260114A1248FE
:100220000260124A1248026012480160012112481D
:10023000016021211148016002211148016009215A
:100240000F4801607047C046EC02000010F1FFFF4C
:1002500010F2FFFF0001000010F0FFFF4C1D000036
:100260000C4001E0002000004C4001E00380000051
:10027000144001E0184001E0444001E0504001E03A
:10028000044001E00A1C022307490B60011C0748D7
:100290000160111C06480160212106480160092106
:1002A000014801607047C046044001E0184001E089
:1002B000444001E0504001E0012208490A60084A38
:1002C00008490A60021C084909689142FAD30021D2
:1002D00005480160014801607047C046044000E0E5
:1002E000E80300000C4000E0084000E003002DE9B6
:1002F000A4009FE5000090E5010010E30E00000A55
:1003000098009FE5001090E5801081E3001080E5E3
:1003100088009FE5001090E5021C81E3001080E555
:1003200078009FE5001090E5011B81E3001080E557
:100330000110A0E360009FE5001080E558009FE5F4
:10034000000090E5020C10E30E00000A50009FE54B
:10035000001090E5801081E3001080E540009FE5EB
:10036000001090E5021C81E3001080E530009FE55D
:10037000001090E5011B81E3001080E5021CA0E362
:1003800014009FE5001080E50010A0E314009FE535
:10039000001080E50300BDE804F05EE2004001E0EB
:1003A000048002E00C8002E030F0FFFF264806C81F
:1003B0000B1C134305D000230B70491C9142FBD149
:1003C000F5E72248C01C0323984306C80B1C1343BF
:1003D00006D00378401C0B70491C9142F9D1F1E71B
:1003E00000B519241A48016801601A4801680160C3
:1003F000194801680160194A1948016811430160F0
:10040000184A1948016811430160184918480160E9
:10041000FFF7F8FEFFF788FEFFF7A0FE1548FFF78D
:100420004BFF15481549FFF72DFF192414200A2109
:10043000FFF728FF1248FFF73FFF0134201C9628E2
:10044000F4D3F2E700BDC046100100002001000017
:1004500000C002E004C002E014C002E00000FF0F90
:10046000188002E0800C3E00088002E00000FF00DF
:100470000C8002E010270000E8030000F4010000F7
:1004800040420F00FEFFFFEAFEFFFFEAFEFFFFEA29
:0C049000FEFFFFEAFEFFFFEAFEFFFFEAAE
:00000001FF
