:020000040000FA
:1000000018F09FE518F09FE518F09FE518F09FE5C0
:1000100018F09FE50000A0E1F0FF1FE518F09FE554
:1000200040000000A00F00009C0F0000980F00008F
:10003000940F000000000000900F00008C0F0000E3
:10004000B0009FE5AA10A0E35520A0E32430A0E370
:10005000043080E50130A0E3003080E50C1080E53D
:100060000C2080E5083090E5013B13E2FCFFFF0A1D
:100070000330A0E3003080E50C1080E50C2080E523
:1000800074009FE50410A0E3041080E50210A0E3D3
:10009000001080E564009FE5DBF021E300D0A0E1E3
:1000A000040040E2D7F021E300D0A0E1040040E2E8
:1000B000D1F021E300D0A0E1040040E2D2F021E33E
:1000C00000D0A0E1800040E2D3F021E300D0A0E125
:1000D000040040E210F021E300D0A0E120009FE501
:1000E000010010E31CE09F051CE09F1510FF2FE1AD
:1000F000FEFFFFEAFEE7C04680C01FE000C01FE031
:1001000090040040E1090000F0000000F50000004C
:1001100020202020202020202020200053656E73E6
:100120006F72204F70656E00507265737320537448
:100130006172740052616E676520302D3900526122
:100140006E676520302D350052616E676520302D59
:10015000330052616E676520302D320054454D509A
:060160003A00000000005F
:0A016800505245533A000000000019
:0A01740052504D203A000000000038
:05018000204300000017
:05018800505349000086
:10019000456E7465722054696D653A200000000058
:0E01A000000000000000000000000000000051
:1001B000456E7465722054656D703A200000000031
:0E01C000000000000000000000000000000031
:0B01D00054696D6500436C6F636B00A9
:0901DC0030303A30303A30300086
:1001E8009004004047070040480700405A07004075
:1001F8005C07004066070040680700407F07004032
:10020800800700409407004094070040950700408D
:100218000000000000000000B8040040A3050040F2
:10022800303030303000000000000030303A3030DC
:100238003A303000002020202020202020202020BC
:1002480020202020202020202020202020202020A6
:100258002020202020202020202020202020202096
:100268002020202020202020202020202020202086
:100278002020202020202020202020202020202076
:100288002020202020202020202020202020202066
:100298002020202020202020202020202020202056
:1002A8002020202020202020202020202020202046
:1002B8002020202020202020202020202020202036
:1002C8002020202020202020202020202020202026
:1002D8002020202020202020202020202020202016
:1002E8002020202020202020202020202020202006
:1002F80020202020202020202020202020202020F6
:1003080020202020202020202020000061060040FE
:10031800750600400A0D004C6F7720004869676831
:100328000030303000000000490700405907004005
:1003380031323341343536423738394345302E442B
:100348006A0700407E07004030303A30303A30309B
:100358000030302F30302F303030300000000000B7
:1003680000000000044A054801681143016004497F
:10037800044801607047C0460000001504C002E050
:100388000E0A2100004003E003002DE90010A0E35D
:1003980008009FE5001080E50300BDE804F05EE278
:1003A80030F0FFFF07002DE950009FE50000D0E581
:1003B8004C109FE50010D1E548209FE50100C2E7F9
:1003C80040009FE50100D0E77E0050E30200001ADC
:1003D8000010A0E328009FE50010C0E520009FE57D
:1003E8000010D0E5011081E20010C0E50010A0E384
:1003F80014009FE5001080E50700BDE804F05EE208
:10040800000001E044070040E006004030F0FFFF34
:100418000B490C48016026210B48016040210B481C
:10042800016001210A4801600A4A0B48026027223C
:100438000A48026080220548026009480160704746
:100448009003000000F1FFFF00F2FFFF10F0FFFF34
:1004580004C000E0AC03000004F1FFFF04F2FFFF5A
:10046800040001E000B58DB0254900A80A220B78E8
:100478000370491C401C521EF9D1224903A80A22C4
:100488000B780370491C401C521EF9D11E4906A85E
:100498000A220B780370491C401C521EF9D11B49D3
:1004A80009A805220B780370491C401C521EF9D17B
:1004B80017490BA805220B780370491C401C521ED3
:1004C800F9D100F09FF9DF2109A8017000A80021E7
:1004D80000F0ECF909A8112100F0E8F90D480C2109
:1004E80000F0E4F903A8002100F000FA0BA811219C
:1004F80000F0FCF906A8002100F018FA0DB000BDC4
:100508005C01000068010000740100008001000027
:10051800880100006E06004000210D4801600D4969
:10052800097830390C4A514301600C4909780A1C92
:10053800303A64214A4301688918016008490978FA
:100548000A1C303A0A214A43016889180160704739
:10055800900400406E060040E80300006F0600406B
:100568007006004010B50023191C1A1C1D4801789C
:1005780030390A2461430906090E4278303A1206D6
:10058800120E89180906090EC278303A624312061B
:10059800120E0379303B1B061B0ED2181206120EE0
:1005A8008379303B63431B061B0EC0793038000645
:1005B800000E1B181B061B0E0C1C0B480470141C89
:1005C8000A4804701C1C0A480470081C0006000E27
:1005D800111C0906090E1A1C1206120E00F0E8FA80
:1005E80010BDC046C30400405D0600405E060040E2
:1005F8005F06004070B481B00026321C331C351CE5
:1006080000AC2680341C00172B4D29400916351CD8
:1006180018E0061C3604360C00AA16802A1C1204A0
:10062800120C0126964000AA128832401204120CBD
:10063800161C3604360C002E01D12A1C07E00135A1
:100648002D042D0C2E1C3604360C042EE1D3002567
:1006580017E00C1C2404240C2B1C1B041B0C012667
:100668009E40231C1B041B0C33401B041B0C1E1C2C
:100678003604360C002E01D12B1C07E001352D0461
:100688002D0C2E1C3604360C042EE2D3181C010443
:10069800090C8900101C0004000C09180748415C6B
:1006A800074801700020011C0649074801600748F7
:1006B800016001B070BC70470000000F490700409E
:1006C80059070040FFFFFFFF148002E01C8002E092
:1006D800F0B5011C81B00020061C071C051C021C7B
:1006E800009000232F4803702F4B30480360304898
:1006F8000468271C081C0006000E012809D102E026
:100708002B480468271C381C2A4908402A49C84233
:10071800F6D0381C27490840021C2749C8423AD05D
:10072800231C1F1C142000F047FB2248184000908F
:100738002149C8422FD00026301C012809D00228A0
:100748000BD003280DD000280ED11C491C4801608D
:100758000AE01C491A48016006E01B491848016074
:1007680002E01A491648016011480268151C281C45
:10077800104908401049C84204D0201C111CFFF73A
:1007880039FF08E008490E48016008480160013651
:10079800301C0428D0D3322000F00EFB014800782A
:1007A80001B0F0BD59070040FFFFFFFF1C8002E0C9
:1007B800108002E0000000F0000000100000000DB2
:1007C800148002E0000000070000000E0000000B8B
:1007D80000B5382000F044F8192000F0A9FA0120EB
:1007E80000F03EF8192000F0A3FA062000F038F8CF
:1007F800192000F09DFA0C2000F032F8192000F0C2
:1008080097FA00BD00B5012000F02AF8052000F095
:100818008FFA00BD00B5011C0A4A0B480260081C8B
:100828000106090E090409480160094909480160DF
:10083800094908480160052000F07AFA0649074886
:10084800016000BD0000FF001C8002E0148002E08F
:1008580000080000048002E0000400000C8002E0B0
:1008680000B5011C0A4A0B480260081C0106090E63
:1008780009040948016009490948016009490A4809
:100888000160052000F054FA06490548016000BDE2
:100898000000FF001C8002E0148002E00008000055
:1008A8000C8002E000040000048002E030B5051C62
:1008B80080310906090E081C0006000EFFF7D0FF5C
:1008C8000F2000F035FA00240AE0281C0078FFF712
:1008D800A1FF0A2000F02CFA013501342406240E69
:1008E800281C00780028F0D130BDC04630B5051C62
:1008F800C0310906090E081C0006000EFFF7B0FFFC
:10090800052000F015FA00240AE0281C0078FFF7FB
:1009180081FF012000F00CFA013501342406240E71
:10092800281C00780028F0D130BDC04630B5051C21
:1009380094310906090E081C0006000EFFF790FF07
:10094800052000F0F5F900240AE0281C0078FFF7DC
:1009580061FF012000F0ECF9013501342406240E72
:10096800281C00780028F0D130BDC04630B5051CE1
:10097800D4310906090E081C0006000EFFF770FFA7
:10098800052000F0D5F900240AE0281C0078FFF7BC
:1009980041FF012000F0CCF9013501342406240E72
:1009A800281C00780028F0D130BDC04610B5041CC2
:1009B80080310906090E081C0006000EFFF750FFDB
:1009C800052000F0B5F9201C0006000EFFF722FFF5
:1009D800012000F0ADF910BD234806C80B1C1343D5
:1009E80005D000230B70491C9142FBD1F5E71F4845
:1009F800C01C0323984306C80B1C134306D0037876
:100A0800401C0B70491C9142F9D1F1E700B5184A16
:100A18001848016811430160174A184801681143D2
:100A28000160174A1748016811430160164A1748C0
:100A380001681143016016491648016016491748B4
:100A48000160FFF7C5FE00F059FAFFF7E1FC00F07E
:100A5800FDF9FFF787FC00F023F800F083F900F0B8
:100A680083F8FEE700BDC046E80100002002000050
:100A78000500050000C002E00000080004C002E014
:100A88000000FF0F188002E0000C3E00088002E022
:100A98000000FF000C8002E00004F00F048002E078
:100AA8000E4A0F480168114301600E490E48016063
:100AB8000E490F48016002210E4801600E4A0F4896
:100AC800026064220E48026021220E4802600E482D
:100AD800016008210C4801607047C046000400000E
:100AE80004C002E0983A00000C4001E00020000039
:100AF8004C4001E0144001E0E8030000184001E028
:100B0800444001E0504001E0044001E0021C101C98
:100B18000206120E08480260081C0106090E074862
:100B2800016021210648016002210648016009216F
:100B3800044801607047C046184001E0444001E0A5
:100B4800504001E0044001E004480168044800689E
:100B58008842F9D30221034801607047444001E00C
:100B6800084001E0044001E009490A4801602D21DC
:100B78000948016009490A480160F82109480170DB
:100B88000121094801701121084801707047C046C9
:100B9800800C000010F1FFFF10F2FFFF00200000A2
:100BA80010F0FFFF104002E00C4002E0084002E0B5
:100BB80010B40C1C031C2A480078111C0A06120EDB
:100BC80012181206120E101C0006000E3B280BDD30
:100BD800101C0106090E3B390906090E214801704F
:100BE80001342406240E02E0111C1E4801701E4820
:100BF8000078211C0C06240E24182406240E201C20
:100C08000006000E3B280BDD201C0106090E3B39AF
:100C18000906090E1548017001331B061B0E02E078
:100C2800211C1248017012480078011C181C030688
:100C38001B0E5B181B061B0E181C0006000E17283F
:100C480008DD181C0106090E17390906090E09489E
:100C5800017002E0191C0748017010BC7047C046BB
:100C6800204002E0604002E0244002E0644002E0EC
:100C7800284002E0684002E007002DE994009FE563
:100C88000000D0E5010010E31300000A88109FE57A
:100C980088009FE5B020D0E1012082E2B020C0E1C9
:100CA8000000D1E50020A0E1010051E5020080E04C
:100CB8000110D1E50120A0E1020080E0000050E32E
:100CC8000200000A011041E254009FE50010C0E54F
:100CD8000110A0E33C009FE50010C0E534009FE54B
:100CE8000000D0E5020010E30500000A0110A0E3AF
:100CF80030009FE50010C0E50210A0E314009FE556
:100D08000010C0E50010A0E31C009FE5001080E57E
:100D18000700BDE804F05EE2004002E05E06004025
:100D2800680700405F0600407E07004030F0FFFF84
:100D3800012208490A60084A08490A60021C084951
:100D480009689142FAD30021054801600148016011
:100D58007047C046044000E0E80300000C4000E093
:100D6800084000E00A490B48016025210A48016053
:100D780020210A480160012109480160094A0A48FE
:100D880002600A4A0A4802600A4801607047C04681
:100D9800F40D00000CF1FFFF0CF2FFFF10F0FFFF55
:100DA800148000E0E8030000188000E0983A000092
:100DB8000C8000E0048000E0012208490A60084A2B
:100DC80008490A60021C084909689142FAD30021BF
:100DD80005480160014801607047C046044000E0D2
:100DE800983A00000C4000E0084000E003002DE9BC
:100DF80044009FE5000090E5010000E2010050E397
:100E08000800001A0110A0E330009FE50010C0E5BB
:100E18000010A0E328009FE5001080E50110A0E382
:100E280014009FE5001080E50010A0E314009FE582
:100E3800001080E50300BDE804F05EE2008000E0F9
:100E480060060040088000E030F0FFFF30B4012564
:100E58000C48057083240C48047000230B48037069
:100E680062220B4802700321074801700948057087
:100E7800094804700948037009480270064801705F
:100E880030BC7047080001E00C0001E0040001E0FC
:100E9800000001E008C000E00CC000E004C000E071
:100EA80000C000E0011C04480160AA210348017049
:100EB8005521024801707047040000E0080000E076
:100EC80003002DE90110A0E324009FE50010C0E510
:100ED8000E02A0E30010D0E5FB1001E20010C0E50F
:100EE8000010A0E30C009FE5001080E50300BDE8BA
:100EF80004F05EE29407004030F0FFFF00B5074AB7
:100F080007480168114301602022064801881143FF
:100F18000180252000F008F800BDC04600550000FB
:100F280000C002E0000002E0021C111C0148017030
:100F38007047C0460C0002E0011C081C0106090E9F
:100F4800044801800448007880210842FAD001480A
:100F580000887047080002E0040002E0FF2107480B
:100F680001800748007880210842FAD003480188A8
:100F78000906090E081C0006000E7047080002E06A
:100F8800040002E0FEFFFFEAFEFFFFEAFEFFFFEAC1
:0C0F9800FEFFFFEAFEFFFFEAFEFFFFEA9B
:00000001FF
