:020000040000FA
:1000000018F09FE518F09FE518F09FE518F09FE5C0
:1000100018F09FE50000A0E1F0FF1FE518F09FE554
:1000200040000000101B00000C1B0000081B00001B
:10003000041B000000000000001B0000FC1A000070
:10004000B0009FE5AA10A0E35520A0E32430A0E370
:10005000043080E50130A0E3003080E50C1080E53D
:100060000C2080E5083090E5013B13E2FCFFFF0A1D
:100070000330A0E3003080E50C1080E50C2080E523
:1000800074009FE50410A0E3041080E50210A0E3D3
:10009000001080E564009FE5DBF021E300D0A0E1E3
:1000A000040040E2D7F021E300D0A0E1040040E2E8
:1000B000D1F021E300D0A0E1040040E2D2F021E33E
:1000C00000D0A0E1800040E2D3F021E300D0A0E125
:1000D000040040E210F021E300D0A0E120009FE501
:1000E000010010E31CE09F051CE09F1510FF2FE1AD
:1000F000FEFFFFEAFEE7C04680C01FE000C01FE031
:10010000900400402D0D0000F0000000F5000000FC
:1001100020202020202020202020200053656E73E6
:100120006F72204F70656E00507265737320537448
:100130006172740052616E676520302D3900526122
:100140006E676520302D350052616E676520302D59
:10015000330052616E676520302D32005072657336
:1001600073203120746F20636F6E74696E75650043
:100170005A6967426565205465737400456E7465FD
:10018000722054696D653A200000000000000000F4
:0A0190000000000000000000000065
:10019C00456E7465722054656D703A200000000045
:0E01AC00000000000000000000000000000045
:1001BC002D2D2D2D0000000000000000000000007F
:0F01CC000000000054696D6500436C6F636B00A9
:0901DC0030303A30303A30300086
:1001E80057726974652020205B325D005265616436
:1001F800202020205B315D005A69674265652053E5
:10020800657474696E677300444C004D5900434827
:100218000050414E000A0A0D4D5920416464726530
:1002280073733A20000A0A0D5772697474696E670D
:10023800205A696742656520506172616D65746511
:1002480072732E2E2E000A0A0D52656164696E675C
:10025800205A696742656520506172616D657465F1
:1002680072732E2E2E000A0A0D43483A2045525228
:100278004F5220000A0A0D43483A204F4B200041B4
:10028800544348000A0A0D4D593A204552524F52DC
:1002980020000A0A0D4D593A204F4B200041544D79
:1002A80059000A0A0D50414E3A204552524F5220E9
:1002B800000A0A0D50414E3A204F4B200041544944
:1002C80044000A0A0D444C3A204552524F5220002D
:1002D8000A0A0D444C3A204F4B20004154444C002C
:1002E8000A0A0D4578697420434D443A2045525214
:1002F8004F5220000A0A0D4578697420434D443A4C
:10030800204F4B20004154434E0D000A0A0D57520E
:1003180020434D443A204552524F5220000A0A0DBC
:10032800575220434D443A204F4B200041545752D6
:100338000D000A0A0D434D443A204552524F5220AF
:10034800000A0A0D434D443A204F4B20004F4B0DF5
:0E03580000434D44204D6F6465002B2B2B009D
:1003680030303000000000000000000000000000F5
:1003780000000000303030000000000000000000E5
:100388000000000000000000900400404707004003
:10039800480700405A0700405C07004066070040D5
:1003A800680700401E080040200800403708004049
:1003B800380800404D0800405008004051080040EF
:1003C800540800407C0800400000000000000000C5
:1003D800B8040040A3050040303030303000000041
:1003E80000000030303A30303A3030000020202011
:1003F80020202020202020202020202020202020F5
:1004080020202020202020202020202020202020E4
:1004180020202020202020202020202020202020D4
:1004280020202020202020202020202020202020C4
:1004380020202020202020202020202020202020B4
:1004480020202020202020202020202020202020A4
:100458002020202020202020202020202020202094
:100468002020202020202020202020202020202084
:100478002020202020202020202020202020202074
:100488002020202020202020202020202020202064
:100498002020202020202020202020202020202054
:1004A8002020202020202020202020202020202044
:1004B8002020202020202020202020202020202034
:1004C80020200000C5060040D90600400A0D004C57
:1004D8006F772000486967680030303000000000FE
:1004E800490700405907004031323341343536421C
:1004F8003738394345302E448C070040EA0700401E
:100508000A0D554152543120636F6E6E65637465F0
:100518006420617420393630302D382D4E000A0D94
:10052800554152543020636F6E6E65637465642064
:10053800617420393630302D382D4E005265616394
:1005480074696F6E2020436F6E74726F6C6C657285
:1005580000000000004E434C2D50756E65000000F1
:10056800F507004010080040496E697469616C69BC
:100578007A696E67000000000000000030303030FB
:10058800303000001D0800401E0800400400000034
:10059800220800403608004030303A30303A3030D7
:1005A8000030302F30302F303030300054080040C9
:1005B8007C0800403030303000000000000030433C
:1005C8000000000000000000303030300000000063
:1005D8000000303030300000000000000000000053
:1005E80000000000044A05480168114301600449FD
:1005F800044801607047C0460000001504C002E0CE
:100608000E0A2100004003E003002DE90010A0E3DA
:1006180008009FE5001080E50300BDE804F05EE2F5
:1006280030F0FFFF1F002DE970009FE50000D0E5C6
:100638006C109FE50010D1E50120A0E164309FE532
:100648000200C3E75C009FE50200D0E70D0050E31D
:100658000A00001A48009FE5012081E20020C0E559
:100668000A20A0E30030D0E50340A0E134309FE544
:100678000420C3E70020A0E30020C0E5020000EA50
:100688001C009FE5011081E20010C0E50010A0E306
:1006980014009FE5001080E51F00BDE804F05EE24D
:1006A800000001E0440700405D06004030F0FFFF15
:1006B80000B500F017FA0448002100F067FA034873
:1006C800002100F0C3FA00BD700100005C010000C9
:1006D80000210D4801600D49097830390C4A514311
:1006E80001600C4909780A1C303A64214A430168C0
:1006F80089180160084909780A1C303A0A214A43D6
:10070800016889180160704790040040D2060040D3
:10071800E8030000D3060040D406004010B50023CB
:10072800191C1A1C1D48017830390A24614309062E
:10073800090E4278303A1206120E89180906090E77
:10074800C278303A62431206120E0379303B1B0618
:100758001B0ED2181206120E8379303B63431B0618
:100768001B0EC07930380006000E1B181B061B0E26
:100778000C1C0B480470141C0A4804701C1C0A4802
:100788000470081C0006000E111C0906090E1A1C2C
:100798001206120E00F002FD10BDC046C304004050
:1007A800C1060040C2060040C306004070B481B0D4
:1007B8000026321C331C351C00AC2680341C001764
:1007C8002B4D29400916351C18E0061C3604360C3A
:1007D80000AA16802A1C1204120C0126964000AAB0
:1007E800128832401204120C161C3604360C002EE5
:1007F80001D12A1C07E001352D042D0C2E1C3604CE
:10080800360C042EE1D3002517E00C1C2404240C1C
:100818002B1C1B041B0C01269E40231C1B041B0CB9
:1008280033401B041B0C1E1C3604360C002E01D151
:100838002B1C07E001352D042D0C2E1C3604360C1C
:10084800042EE2D3181C0104090C8900101C0004B2
:10085800000C09180748415C074801700020011C7A
:100868000649074801600748016001B070BC70473D
:100878000000000F4907004059070040FFFFFFFF35
:10088800148002E01C8002E0F0B5011C81B0002059
:10089800061C071C051C021C009000232F4803702F
:1008A8002F4B3048036030480468271C081C00069A
:1008B800000E012809D102E02B480468271C381CC7
:1008C8002A4908402A49C842F6D0381C2749084016
:1008D800021C2749C8423AD0231C1F1C142000F0D0
:1008E80061FD2248184000902149C8422FD00026B7
:1008F800301C012809D002280BD003280DD000286D
:100908000ED11C491C4801600AE01C491A480160C4
:1009180006E01B491848016002E01A4916480160C0
:1009280011480268151C281C104908401049C84283
:1009380004D0201C111CFFF739FF08E008490E48B5
:100948000160084801600136301C0428D0D33220E9
:1009580000F028FD0148007801B0F0BD59070040BB
:10096800FFFFFFFF1C8002E0108002E0000000F0A3
:10097800000000100000000D148002E000000007D5
:100988000000000E0000000BF0B51F1C161C0C1C0C
:10099800051C86B0002100A80170414901A8142255
:1009A8000B780370491C401C521EF9D13D4800F0D9
:1009B800B5FC61E03C4800F0CFFD0120FFF764FF83
:1009C8003A49087039480078302801DB012100E0F5
:1009D8000021392801DC012000E00020084000281F
:1009E8000ED03248007800A909780A1C01A9885459
:1009F80000A801780131017000212C48017009E03C
:100A08002A480078412805D1002128480170291C6E
:100A180000A80170FA2000F0C5FC301C0006000E8A
:100A2800012806D1381C0106090E01A800F0AEF80D
:100A380022E0301C0006000E022806D1381C0106F0
:100A4800090E01A800F0C2F816E0301C0006000EDE
:100A5800032806D1381C0106090E01A800F0D6F8B3
:100A68000AE0301C0006000E042805D1381C0106D7
:100A7800090E01A800F0EAF8281C0106090E00A8D2
:100A88000078884296D3281C0206120E01A8211C61
:100A980000F012F9034800F041FC06B0F0BDC04672
:100AA800BC01000088130000FFFFFF034807004057
:100AB80000B5382000F044F8192000F02FFC012080
:100AC80000F03EF8192000F029FC062000F038F864
:100AD800192000F023FC0C2000F032F8192000F057
:100AE8001DFC00BD00B5012000F02AF8052000F02B
:100AF80015FC00BD00B5011C0A4A0B480260081C21
:100B08000106090E090409480160094909480160FC
:100B1800094908480160052000F000FC064907481B
:100B2800016000BD0000FF001C8002E0148002E0AC
:100B380000080000048002E0000400000C8002E0CD
:100B480000B5011C0A4A0B480260081C0106090E80
:100B580009040948016009490948016009490A4826
:100B68000160052000F0DAFB06490548016000BD78
:100B78000000FF001C8002E0148002E00008000072
:100B88000C8002E000040000048002E030B5051C7F
:100B980080310906090E081C0006000EFFF7D0FF79
:100BA8000F2000F0BBFB00240AE0281C0078FFF7A8
:100BB800A1FF0A2000F0B2FB013501342406240EFF
:100BC800281C00780028F0D130BDC04630B5051C7F
:100BD800C0310906090E081C0006000EFFF7B0FF19
:100BE800052000F09BFB00240AE0281C0078FFF792
:100BF80081FF012000F092FB013501342406240E08
:100C0800281C00780028F0D130BDC04630B5051C3E
:100C180094310906090E081C0006000EFFF790FF24
:100C2800052000F07BFB00240AE0281C0078FFF771
:100C380061FF012000F072FB013501342406240E07
:100C4800281C00780028F0D130BDC04630B5051CFE
:100C5800D4310906090E081C0006000EFFF770FFC4
:100C6800052000F05BFB00240AE0281C0078FFF751
:100C780041FF012000F052FB013501342406240E07
:100C8800281C00780028F0D130BDC04610B5041CDF
:100C980080310906090E081C0006000EFFF750FFF8
:100CA800052000F03BFB201C0006000EFFF722FF8A
:100CB800012000F033FB10BD30B40024231C231C9A
:100CC80008E0041C25780C1C257001310130013323
:100CD8001B061B0E141C25062D0E1C1C2406240E98
:100CE800AC42EED330BC704710B4031C002212E0B3
:100CF800081C0478181C0078A04207D10133013180
:100D0800081C0078002803D1012008E0002006E034
:100D180001321206120E0C1C2478002CE8D110BCEB
:100D28007047C046334806C80B1C134305D0002340
:100D38000B70491C9142FBD1F5E72F48C01C0323D7
:100D4800984306C80B1C134306D00378401C0B704D
:100D5800491C9142F9D1F1E700B5284A28480168B1
:100D680011430160274A2848016811430160274A56
:100D78002748016811430160264A27480168114342
:100D8800016026492648016026492748016027490D
:100D980023480160FFF78CFE00F04EFBFFF722FCB2
:100DA80000F04EF800F0D4FA00F0AEF8FFF79AFE23
:100DB800FFF77EFC00211E48016000F0A7FB1D48DC
:100DC80000F0CAFB0020FFF75FFD1B4908701A48B6
:100DD80000783128F3D1002117480170FFF782FE0F
:100DE800164800F09BFA00F059FCFFF761FCE6E7B3
:100DF80000BDC04690030000D803000005000500B0
:100E080000C002E00000080004C002E00000FF0F7C
:100E1800188002E0000C3E00088002E00000FF009D
:100E28000C8002E00004F00F048002E000004000A3
:100E380004C000E0FFFFFF0348070040401F000018
:100E48000E4A0F480168114301600E490E480160BF
:100E58000E490F48016002210E4801600E4A0F48F2
:100E6800026064220E48026021220E4802600E4889
:100E7800016008210C4801607047C046000400006A
:100E880004C002E0983A00000C4001E00020000095
:100E98004C4001E0144001E0E8030000184001E084
:100EA800444001E0504001E0044001E0021C101CF5
:100EB8000206120E08480260081C0106090E0748BF
:100EC80001602121064801600221064801600921CC
:100ED800044801607047C046184001E0444001E002
:100EE800504001E0044001E00448016804480068FB
:100EF8008842F9D30221034801607047444001E069
:100F0800084001E0044001E009490A4801602D2138
:100F18000948016009490A480160F8210948017037
:100F28000121094801701121084801707047C04625
:100F38006C12000010F1FFFF10F2FFFF002000000C
:100F480010F0FFFF104002E00C4002E0084002E011
:100F580030B58A480388181C0004000C884C211CF2
:100F680000F0F8FD081C03041B0C181C0004000CFE
:100F780030300006000E834AD07380480388181C5E
:100F88000004000C211C00F0E5FD011C0B041B0CE7
:100F98001C1C181C0004000C6425291C00F0DAFD38
:100FA800081C03041B0C181C0004000C303000063D
:100FB800000E1074231C181C0004000C291C00F0DF
:100FC800C9FD011C0B041B0C1C1C181C0004000C84
:100FD8000A25291C00F0BEFD081C03041B0C181C64
:100FE8000004000C30300006000E5074231C181C3E
:100FF8000004000C291C00F0ADFD011C0B041B0CA7
:10100800181C0004000C30300006000E90745E4876
:101018000378181C0006000E0A24211C00F076FD37
:10102800081C03061B0E181C0006000E30300006B4
:10103800000E107354480378181C0006000E291C73
:1010480000F088FD011C0B061B0E181C0006000E84
:1010580030300006000E50734C480378181C000608
:10106800000E211C00F052FD081C03061B0E181C64
:101078000006000E30300006000E50724348037818
:10108800181C0006000E291C00F064FD011C0B064C
:101098001B0E181C0006000E30300006000E907261
:1010A8003B480378181C0006000E211C00F02EFD9A
:1010B800081C03061B0E181C0006000E3030000624
:1010C800000E907132480378181C0006000E0A21A1
:1010D80000F040FD011C0B061B0E181C0006000E3C
:1010E80030300006000ED0712A480378181C00061C
:1010F800000E0A2100F00AFD081C03061B0E181C2E
:101108000006000E30300006000ED070214803782B
:10111800181C0006000E0A2100F01CFD011C0B061D
:101128001B0E181C0006000E30300006000E107151
:1011380019480378181C0006000E0A2100F0E6FC86
:10114800081C03061B0E181C0006000E3030000693
:10115800000E107010480378181C0006000E0A21B3
:1011680000F0F8FC011C0B061B0E181C0006000EF4
:1011780030300006000E507030BDC0463C4002E0E2
:10118800E803000022080040384002E02C4002E05A
:10119800204002E0244002E0284002E010B40C1C89
:1011A800031C2A480078111C0A06120E121812068F
:1011B800120E101C0006000E3B280BDD101C010649
:1011C800090E3B390906090E21480170013424062D
:1011D800240E02E0111C1E4801701E480078211CD4
:1011E8000C06240E24182406240E201C0006000ECB
:1011F8003B280BDD201C0106090E3B390906090EA8
:101208001548017001331B061B0E02E0211C124811
:10121800017012480078011C181C03061B0E5B188D
:101228001B061B0E181C0006000E172808DD181CCC
:101238000106090E17390906090E0948017002E06E
:10124800191C0748017010BC7047C046204002E0D6
:10125800604002E0244002E0644002E0284002E0EE
:10126800684002E007002DE994009FE50000D0E502
:10127800010010E31300000A88109FE588009FE52D
:10128800B020D0E1012082E2B020C0E10000D1E529
:101298000020A0E1010051E5020080E00110D1E545
:1012A8000120A0E1020080E0000050E30200000AF3
:1012B800011041E254009FE50010C0E50110A0E3D1
:1012C8003C009FE50010C0E534009FE50000D0E534
:1012D800020010E30500000A0110A0E330009FE5BA
:1012E8000010C0E50210A0E314009FE50010C0E55F
:1012F8000010A0E31C009FE5001080E50700BDE892
:1013080004F05EE2004002E0C2060040200800400F
:10131800C30600403608004030F0FFFF01220849AC
:101328000A60084A08490A60021C0849096891428B
:10133800FAD3002105480160014801607047C046A2
:10134800044000E0E80300000C4000E0084000E032
:101358000A490B48016025210A48016020210A48F2
:101368000160012109480160094A0A4802600A4AE5
:101378000A4802600A4801607047C046E01300004E
:101388000CF1FFFF0CF2FFFF10F0FFFF148000E0EC
:10139800E8030000188000E0983A00000C8000E0A4
:1013A800048000E0012208490A60084A08490A60E6
:1013B800021C084909689142FAD3002105480160D6
:1013C800014801607047C046044000E0983A0000B8
:1013D8000C4000E0084000E003002DE944009FE5D0
:1013E800000090E5010000E2010050E30800001A47
:1013F8000110A0E330009FE50010C0E50010A0E355
:1014080028009FE5001080E50110A0E314009FE587
:10141800001080E50010A0E314009FE5001080E5AF
:101428000300BDE804F05EE2008000E04C080040E4
:10143800088000E030F0FFFF30B401250C4805704B
:1014480083240C48047000230B48037062220B4865
:1014580002700321074801700948057009480470A3
:1014680009480370094802700648017030BC70478B
:10147800080001E00C0001E0040001E0000001E0C8
:1014880008C000E00CC000E004C000E000C000E0BC
:10149800021C111C034801700348007820210842EF
:1014A800FAD07047000001E0140001E000210CE0D0
:1014B800021C1378074A1370074A127820231A422D
:1014C800FAD0013001310906090E021C1278002AEF
:1014D800EED1704700C000E014C000E000210CE02D
:1014E800021C1378074A1370074A127820231A42FD
:1014F800FAD0013001310906090E021C1278002ABF
:10150800EED17047000001E0140001E00A490B48E1
:10151800016020210A48016001210A4801600A4946
:101528000A48016003210A480170AA21094801708C
:1015380055210848017070477C15000000F1FFFF35
:1015480000F2FFFF10F0FFFFFFFFFF01040000E0C3
:10155800000000E0080000E0011C04480160AA2126
:10156800034801705521024801707047040000E0EB
:10157800080000E003002DE90110A0E324009FE526
:101588000010C0E50E02A0E30010D0E5FB1001E258
:101598000010C0E50010A0E30C009FE5001080E5F6
:1015A8000300BDE804F05EE25008004030F0FFFFA1
:1015B80000B50E48FFF792FFFFF794FA0C48002198
:1015C800FFF7E4FA0B49032000F05CFA002806D084
:1015D8000948FFF76BFF0948FFF7A0FE05E0084838
:1015E800FFF764FF0548FFF799FE00BD620300009E
:1015F80059030000550300004903000010270000AC
:101608003A03000000B50B48FFF768FF0A490320BA
:1016180000F038FA002806D00848FFF747FF0848C6
:10162800FFF77CFE05E00748FFF740FF0448FFF797
:1016380075FE00BD0D03000055030000FC0200000C
:1016480010270000E802000010B5041C0E48FFF740
:1016580045FF201CFFF742FF0D20FFF719FF0B493C
:10166800032000F00FFA002806D00948FFF71EFFF4
:101678000848FFF753FE05E00748FFF717FF05483E
:10168800FFF74CFE10BDC046E30200005503000002
:10169800D802000010270000CA02000010B500F0B0
:1016A800D5F91EE014480078041C312C0AD1002119
:1016B800114801701148FFF7F9FE00F0A3F900F096
:1016C800C5F90EE0322C0CD100210B4801700C48F2
:1016D800FFF724FE0B48FFF7E9FE00F0FBF800F0E7
:1016E800B5F90120FFF7D0F8034908700006000E8D
:1016F8004128D7D110BDC046480700404E0200001F
:10170800E80300002D02000000B50B48FFF7E6FED5
:101718000A49032000F0B6F9002806D00848FFF768
:10172800C5FE0848FFF7FAFD05E00748FFF7BEFECB
:101738000448FFF7F3FD00BD340300005503000023
:1017480025030000102700001303000010B5041C37
:101758000E48FFF7C3FE201CFFF7C0FE0D20FFF761
:1017680097FE0B49032000F08DF9002806D00948A0
:10177800FFF79CFE0848FFF7D1FD05E00748FFF793
:1017880095FE0548FFF7CAFD10BDC046C50200001A
:1017980055030000B902000010270000AA0200004B
:1017A80010B5041C0E48FFF799FE201CFFF796FEA3
:1017B8000D20FFF76DFE0B49032000F063F90028A8
:1017C80006D00948FFF772FE0848FFF7A7FD05E0B5
:1017D8000748FFF76BFE0548FFF7A0FD10BDC046A0
:1017E800A5020000550300009A020000102700001F
:1017F8008C02000010B5041C0E48FFF76FFE201C79
:10180800FFF76CFE0D20FFF743FE0B49032000F0A5
:1018180039F9002806D00948FFF748FE0848FFF7BD
:101828007DFD05E00748FFF741FE0548FFF776FD17
:1018380010BDC04687020000550300007C0200006E
:10184800102700006E02000000B585B01A4900A8F4
:1018580014220B780370491C401C521EF9D11748FA
:10186800FFF73CFE0D20FFF713FE00220EE01448A0
:10187800007801210842FAD012480078111C0B06A2
:101888001B0E1149C85401321206120E101C010613
:10189800090E0E48405C0D28E9D10020111C0A06EB
:1018A800120E0A4988540A48FFF700FE0648FFF757
:1018B800FDFD05B000BDC0467C030000A502000088
:1018C800140001E0000001E06808004067080040DB
:1018D8001D02000010B500F095F800F09BF80020FC
:1018E800FEF7D2FF3C4908705CE00020FEF7CCFF11
:1018F800394C20703948FFF72FFE39480A21FFF785
:1019080045F938480A21FFF761F937480A21FFF7F6
:101918007DF936480A21FFF799F92078041C312C03
:101928000ED1FFF7DFF832480021FFF72FF92C49D5
:10193800042001220A23FFF727F800F06BF831E0B2
:10194800322C0ED1FFF7CEF82A480021FFF71EF9F6
:101958002449022001220A23FFF716F800F05AF85A
:1019680020E0332C0ED1FFF7BDF823480021FFF704
:101978000DF91D49042001220A23FFF705F800F09C
:1019880049F80FE0342C0DD1FFF7ACF81B480021C3
:10199800FFF7FCF81549042001220A23FEF7F4FF9B
:1019A80000F038F80C48007844289ED11448FFF716
:1019B800B5FCFFF7FDFD0D48FFF746FE0848FFF7A9
:1019C800C5FE0948FFF7ECFE0648FFF713FFFFF7CF
:1019D8009BFEFFF717FE10BD48070040FFFFFF03FF
:1019E800540800405E080040680800407208004043
:1019F8001902000016020000130200001002000085
:101A0800F401000000B5FFF7D3FDFFF71DFFFFF756
:101A1800F9FD00BD00B5FFF765F808480021FFF79C
:101A2800B5F807480021FFF7D1F806480021FFF76D
:101A3800EDF805480021FFF709F900BD190200007B
:101A480016020000130200001002000000B5FFF7A4
:101A580049F808480221FFF799F807480021FFF7DD
:101A6800B5F806480021FFF7D1F80548FFF756FCFE
:101A780000BDC04600020000F4010000E8010000BB
:101A8800E803000030B50C1C051C85B0164900A8F9
:101A980014220B780370491C401C521EF9D10021F6
:101AA8000EE01248007801221042FAD0104800785F
:101AB8000A1C13061B0E00AAD05401310906090E90
:101AC800281C0206120E081C0006000E9042E8D3DD
:101AD80000A8211CFFF708F9002801D0012000E028
:101AE800002005B030BDC04668030000140001E0C6
:101AF800000001E0FEFFFFEAFEFFFFEAFEFFFFEA4B
:101B0800FEFFFFEAFEFFFFEAFEFFFFEA7847C04656
:101B180000C0A0E30180B0E10A00000AA00058E17B
:101B28008880A091FCFFFF3A080050E10CC0ACE0AF
:101B380008004020010038E1A880A011F9FFFF1A31
:101B48000C10A0E11EFF2FE10010E0E30000A0E36D
:101B58001EFF2FE17847C04602C111E20010614222
:101B680040B03CE0000060220180B0E10D00000AB6
:101B7800A00058E18880A091FCFFFF3A080050E1DE
:101B88000CC0ACE008004020010038E1A880A0119A
:101B9800F9FFFF1A0C10A0E18BB0B0E10010612230
:101BA800000060421EFF2FE10010E0E30000A0E308
:041BB8001EFF2FE1FC
:00000001FF
